:020000040000FA
:0400000038EF00F0E5
:020004000000FA
:0800080006EF00F0A1B203D0E5
:10001000F2A42ED01000F29E7990D59E20A006D09A
:10002000D6CF83FFD7CF83FF208003D0D6CF83FFE7
:100030002090A192F28EFF0E7B6E820E7A6ED76AAE
:10004000D66A7980D58E1000956A9288CD82D76A5B
:10005000D66AD594F28AA192A082F28CF28E280EF2
:10006000D56E800E796EFF0E7B6E820E7A6E120058
:0C007000206A24EC00F0D58E7980FFD7C8
:020000040001F9
:01FFF8008088
:01FFF900F413
:01FFFA00C442
:01FFFB00FF06
:01FFFC00F80C
:01FFFD00FF04
:00000001FF
