:0400000065EF00F0B8
:10000800FACF0AF0FBCF0BF0E9CF0CF0EACF0DF0F6
:10001800E1CF0EF0E2CF0FF0D9CF10F0DACF11F028
:10002800F3CF12F0F4CF13F0F6CF14F0F7CF15F0AA
:10003800F8CF16F0F5CF17F0C3CF07F0080E072654
:10004800C450086E096A072A03D0D89008360936C2
:10005800072EFBD708C018F009C019F018C001F026
:1000680019C002F0000E046E060E036E82EC01F059
:10007800800E01241A6E000E02201B6EC4EC01F0E3
:100088001A5094EC00F09E9C17C0F5FF16C0F8FFBC
:1000980015C0F7FF14C0F6FF13C0F4FF12C0F3FF3A
:1000A80011C0DAFF10C0D9FF0FC0E2FF0EC0E1FF98
:1000B8000DC0EAFF0CC0E9FF0BC0FBFF0AC0FAFF46
:1000C8001100C8EF01F09294898496EC01F096EC47
:1000D80001F096EC01F0979C8E9C96EC01F08E8CCA
:1000E800B8EC01F0000E40EC01F0000E2AEC01F033
:1000F800000E14EC01F096EC01F03C0EB4EC00F0AC
:1001080096EC01F00C0EB4EC00F096EC01F0010E48
:10011800B4EC00F096EC01F0060EB4EC00F012001E
:10012800036E800E6CEC01F0BFEC01F0035056EC4E
:1001380001F000F000F000F000F0C00E6CEC01F0EF
:1001480000F000F000F000F000F000F0000E6CECA1
:1001580001F003C0AEFF00D0ADA2FED7AD921200F1
:100168001D6E000E14EC01F01D50FEEC00F000F0C6
:1001780000F000F0400E14EC01F000F000F000F088
:1001880000F000F000F000F000F000F0000E14ECB9
:1001980001F01200036E000E6CEC01F0BFEC01F0F0
:1001A800035056EC01F000F000F000F000F0400EB3
:1001B8006CEC01F000F000F000F000F000F000F04E
:1001C800000E6CEC01F0120067EC00F0A40EAD6EAE
:1001D800B068900EAC6E92829E9C9D9CF28CF28EC2
:1001E800050EC26E990EC16E96EC01F0C282FCD764
:1001F80065EF00F01C6E8994400EC96E00D09EA673
:10020800FED79E96130EC96E00D09EA6FED79E9668
:100218001CC0C9FF00D09EA6FED79E9689841200F6
:100228001C6E8994400EC96E00D09EA6FED79E967D
:10023800120EC96E00D09EA6FED79E961CC0C9FF9E
:1002480000D09EA6FED79E96898412001C6E8994C3
:10025800400EC96E00D09EA6FED79E96010EC96EAE
:1002680000D09EA6FED79E961CC0C9FF00D09EA6B1
:10027800FED79E96898412001C6E8994400EC96E22
:1002880000D09EA6FED79E96000EC96E00D09EA6F0
:10029800FED79E961CC0C9FF00D09EA6FED79E968C
:1002A80089841200016E8994400EC96E00D09EA602
:1002B800FED79E96130EC96E00D09EA6FED79E96B8
:1002C80001C0C9FF00D09EA6FED79E968984120061
:1002D800016E8994400EC96E00D09EA6FED79E96E8
:1002E800120EC96E00D09EA6FED79E9601C0C9FF09
:1002F80000D09EA6FED79E96898412000150030264
:10030800F3CF05F0F4CF06F001500402F3500626AF
:1003180002500302F350062605C001F006C002F0A1
:10032800120012001C681D6800F000F000F000F0D8
:1003380008D002D01D0600D01D50D8A4FBD71C063B
:1003480000D01C50D8A4F8D712000168026808D061
:1003580002D0020600D00250D8A4FBD7010600D074
:100368000150D8A4F8D712009496949A220EC66E1B
:10037800C78C9E961200A9EC01F0A9EC01F01200BE
:0E038800800ECEEC00F012000001E8EF00F055
:020000040001F9
:06FFF80080F4C4FFF8FFD5
:00000001FF
